:107000000C9434380C9491390C9491390C94913936
:107010000C9491390C9491390C9491390C949139C8
:107020000C9491390C9491390C9491390C949139B8
:107030000C9491390C9491390C9491390C949139A8
:107040000C9491390C9491390C9491390C94913998
:107050000C9491390C9491390C9491390C94913988
:107060000C9491390C949139112411241FBECFEF47
:10707000D8E0DEBFCDBF14BEE0E6F0E088E180835B
:10708000108211E0A0E0B1E0EAE1F6E702C005906D
:107090000D92AC31B107D9F721E0ACE1B1E001C00C
:1070A0001D92A93AB207E1F70E9458380C940B3BA5
:1070B00014BE0FB6F894A895809160008861809303
:1070C0006000109260000FBE0E94DB3A84B714BECD
:1070D0008EEF91E00E94E23A8730904B09F45CC059
:1070E00081E28093A80180E090E394B92D9A95E025
:1070F00095BD98E29093BA0094E49093BC00789484
:10710000811509F4ABC0C4E4D5EC00E215EE809122
:10711000A801813249F480912501811105C0809137
:107120001D01811509F49AC08091210190912201DD
:1071300001968093210190932201C093BC0080911D
:10714000210190912201892B29F480911C018F5FEC
:1071500080931C0180911D01811521F00E94293A24
:1071600010921D018091BC0087FF5BC08091B90027
:10717000887F803A09F4B8C040F5803809F482C0AD
:10718000883809F4A2C0803609F446C08091BC005A
:1071900080618093BC0043C01092A8018FEF9FEFE5
:1071A000909303018093020160E070E08EEF91E024
:1071B0000E94E83A8FEF93ECE9E081509040E04084
:1071C000E1F700C0000081E08FCF883B41F0803CB8
:1071D00009F49AC0883AD1F6109220012C9A61E005
:1071E00083E00E94AB3AE091200181E08E0F809312
:1071F00020018091A801823109F455C0823209F43E
:1072000057C0813009F05FC0EF70F0E0E45FFE4FDF
:1072100080818093BB0003C0109220012C9AD093F0
:10722000BC00A89B16C016BD85B1802785B980918A
:10723000020190910301029708F468C08091020155
:10724000909103010197909303018093020181E0E3
:1072500085BB80911C01853108F459CF1092BC0088
:1072600015BC15B880E090E000000197E9F7809127
:107270002501811521F00E94293A10922501E0E0B4
:10728000F0E009956091BB008091200191E0980F9A
:10729000909320010E94B7398111C1CF61E082E053
:1072A0000E94AB3ABCCFE770F0E0EC5FFE4FB0CF8E
:1072B000E0912601F091270184913196E093260117
:1072C000F0932701A6CF8FEFA4CF61E084E00E9466
:1072D000AB3A6091BB008091200191E0980F9093B0
:1072E00020010E94B7399BCF8091A801823449F4D4
:1072F000809126018F7790E0892B19F481E08093AB
:107300001D01109220018BCF2C9889CF8091020112
:1073100090910301019709F09ACFF1E2F093A8014F
:1073200096CF0C9400382091260130912701622FCE
:107330006F77462F50E0F901E61BF109BF01E0939A
:10734000000170930101FA01E85DFE4F80832F5F19
:107350003F4F209326013093270181E08093250140
:107360004F5F5F4F40932301509324010895982F5E
:10737000862F923009F44FC060F4911117C063302A
:10738000F8F410920301109202018093A80181E0A9
:107390000895933009F444C09091A801923209F401
:1073A00054C0923449F40E949339F1CF9091A801CE
:1073B000913021F0923001F180E00895603821F49D
:1073C00081E28093A801F8CF6111F6CF87E090EBBE
:1073D00080931E0190931F01BC018EEF91E00E94EB
:1073E000E83A88E198E00FB6F894A8958093600099
:1073F0000FBE90936000FFCF613010F482E1C5CFE3
:10740000D9F682E28093A8011092250110922301FF
:1074100010922401BCCF1092260160932701B7CFB0
:107420002091260130912701262B209326013093AD
:1074300027018091000190910101019609F0A7CFE9
:107440001092000110920101A2CF92E49093A80142
:10745000AACFCF93DF9310921C0180912501811553
:1074600089F06FB7F894209100013091010180916B
:10747000230190912401009711F480E890E03037C7
:1074800020F07894DF91CF9108950FB6F894A895E5
:1074900040916000486140936000109260000FBE10
:1074A00007B600FCFDCF43E0F90147BFE89507B6FA
:1074B00000FCFDCFF9013296A90140585F4F71E001
:1074C000E417F50708F470E4472F50E0F90171E084
:1074D000AFEFBFEF0D0177BFE89511243296415011
:1074E0005040C1F7AC01F901A8E2B1E071E04230CF
:1074F000510538F5AC014E7FFC01E41BF50B3197CB
:1075000069F4FA01E20FF31F485D5E4FDA018C91D6
:1075100090E041E00C0147BFE895112485E0F901B6
:1075200087BFE89507B600FCFDCF81E18093570047
:10753000E8951092250110922301109224016FBF4B
:10754000A1CFCD91DD910E0177BFE8951124329640
:1075500042505109CCCF9EEF980F9630A0F44AB11B
:1075600021E030E0F90101C0EE0F8A95EAF78E2F95
:107570004E2B4AB99BB1611519F0892B8BB908952F
:1075800080958923FBCF8850833088F444B121E073
:1075900030E0F90101C0EE0F8A95EAF78E2F242F13
:1075A0002E2B24B995B1611519F0892B85B9089551
:1075B00080958923FBCF88E28093BA0085EC809385
:1075C000BC000895A8E1B0E042E050E00C94EF3A2E
:1075D0000E94FD3A272F0C94FE3ADC01CB01FC01FE
:1075E000F999FECF06C0F2BDE1BDF89A319600B41C
:1075F0000D9241505040B8F70895262FF999FECFCB
:107600001FBA92BD81BD20BD0FB6F894FA9AF99ABF
:0A7610000FBE01960895F894FFCF15
:10761A00FFFFE8031E950F8070000000545749428F
:0C762A004F4F542076332E33204E520078
:040000030000700089
:00000001FF
