:10F000000C943E780C94AE790C94AE790C94AE7955
:10F010000C94AE790C94AE790C94AE790C94AE79D4
:10F020000C94AE790C94AE790C94AE790C94AE79C4
:10F030000C94AE790C94AE790C94AE790C94AE79B4
:10F040000C94AE790C94AE790C94AE790C94AE79A4
:10F050000C94AE790C94AE790C94AE790C94AE7994
:10F060000C94AE790C94AE790C94AE790C94AE7984
:10F070000C94AE790C94AE790C94AE7914BEE0E6A3
:10F08000F0E088E18083108211248FEF90E19EBF31
:10F090008DBF11241FBECFEFD0E1DEBFCDBFF894EE
:10F0A00014BE0FB6F894A895809160008861809393
:10F0B0006000109260000FBE112411E0A0E0B1E0EA
:10F0C000ECE5F6EF02C005900D92A432B107D9F736
:10F0D00022E0A4E2B1E001C01D92A133B207E1F742
:10F0E0000E9474780C942C7B14BE0FB6F894A895EB
:10F0F00080916000886180936000109260000FBE74
:10F1000014BE0E94F87A84B714BE8EEF91E00E947C
:10F11000037B8730904B09F45CC081E2809330021E
:10F1200080E090E394B92D9A95E095BD98E2909394
:10F13000BA0094E49093BC007894811509F4ABC0B4
:10F14000C4E4D5EC00E212EF80913002813249F440
:10F1500080912D01811105C080912501811509F44F
:10F160009AC08091290190912A01019680932901EA
:10F1700090932A01C093BC008091290190912A01AB
:10F18000892B29F4809124018F5F80932401809141
:10F190002501811521F00E94407A1092250180916D
:10F1A000BC0087FF5BC08091B900887F803A09F47A
:10F1B000BAC040F5803809F482C0883809F4A4C088
:10F1C000803609F446C08091BC0080618093BC0009
:10F1D00043C0109230028FEF9FEF90930301809312
:10F1E000020160E070E08EEF91E00E94097B8FEFFA
:10F1F00091EEE4E081509040E040E1F700C0000073
:10F2000081E08FCF883B41F0803C09F49AC0883A76
:10F21000D1F6109228012C9A61E083E00E94C87A0E
:10F22000E091280181E08E0F8093280180913002C7
:10F23000823109F455C0823209F459C0813009F095
:10F2400061C0EF70F0E0EC5EFE4F80818093BB0008
:10F2500003C0109228012C9AD093BC00A89B16C022
:10F2600016BD85B1802785B9809102019091030177
:10F27000029708F468C08091020190910301019700
:10F28000909303018093020181E085BB809124016A
:10F29000853108F459CF1092BC0015BC15B880E038
:10F2A00090E000000197E9F780912D01811521F090
:10F2B0000E94407A10922D01E0E0F0E00995609103
:10F2C000BB008091280191E0980F909328010E9443
:10F2D000CE798111C1CF61E082E00E94C87ABCCFB3
:10F2E000EF70F0E0EE0FFF1FEC5FFE4FAECFE0914E
:10F2F0002E01F0912F0184913196E0932E01F0932D
:10F300002F01A4CF8FEFA2CF61E084E00E94C87AE2
:10F310006091BB008091280191E0980F90932801A3
:10F320000E94CE7999CF80913002823439F4809155
:10F330002E01811103C081E08093250110922801E4
:10F340008BCF2C9889CF8091020190910301019776
:10F3500009F09ACFF1E2F093300296CF0C94007846
:10F3600020912E0130912F01109200013093010164
:10F37000422F50E0FA01E05DFE4F80832F5F3F4F48
:10F3800020932E0130932F0181E080932D014F5F58
:10F390005F4F40932B0150932C010895982F862F97
:10F3A000923009F44FC060F4911117C06330F8F443
:10F3B00010920301109202018093300281E00895BF
:10F3C000933009F444C090913002923209F454C051
:10F3D000923449F40E94B079F1CF9091300291308B
:10F3E00021F0923001F180E00895603821F481E24B
:10F3F00080933002F8CF6111F6CF87E090EB8093D5
:10F40000260190932701BC018EEF91E00E94097BB9
:10F4100088E198E00FB6F894A895809360000FBE3D
:10F4200090936000FFCF613010F482E1C5CFD9F630
:10F4300082E28093300210922D0110922B011092E3
:10F440002C01BCCF10922E0160932F01B7CF2091D9
:10F450002E0130912F01262B20932E0130932F0166
:10F460008091000190910101019609F0A7CF1092BF
:10F47000000110920101A2CF92E490933002AACF32
:10F48000CF93DF931092240180912D01811589F093
:10F490006FB7F894209100013091010180912B0108
:10F4A00090912C01009711F480E091E0303720F02A
:10F4B0007894DF91CF9108950FB6F894A895409174
:10F4C0006000486140936000109260000FBE07B674
:10F4D00000FCFDCF43E0F90147BFE89507B600FC0B
:10F4E000FDCFF9013296A9015F5F71E0E417F507DE
:10F4F00008F470E8472F50E0F90171E0AFEFBFEF7B
:10F500000D0177BFE8951124329641505040C1F764
:10F51000AC01F901A0E3B1E071E04230510538F5EA
:10F52000AC014E7FFC01E41BF50B319769F4FA0145
:10F53000E20FF31F405D5E4FDA018C9190E041E0F5
:10F540000C0147BFE895112485E0F90187BFE895D4
:10F5500007B600FCFDCF81E180935700E89510923B
:10F560002D0110922B0110922C016FBFA2CFCD91D3
:10F57000DD910E0177BFE895112432964250510972
:10F58000C42FCF73D0E0CD2B09F0C7CFA895C5CF3E
:10F590009EEF980F9630A0F44AB121E030E0F901D7
:10F5A00001C0EE0F8A95EAF78E2F4E2B4AB99BB118
:10F5B000611519F0892B8BB9089580958923FBCFAC
:10F5C0008850833088F444B121E030E0F90101C073
:10F5D000EE0F8A95EAF78E2F242F2E2B24B995B1A2
:10F5E000611519F0892B85B9089580958923FBCF82
:10F5F00088E28093BA00ECEBF0E084EC80838081B9
:10F60000816080830895A8E1B0E042E050E00C946E
:10F61000107B0E941E7B272F0C941F7BDC01CB01EB
:10F62000FC01F999FECF06C0F2BDE1BDF89A319612
:10F6300000B40D9241505040B8F70895262FF99923
:10F64000FECF1FBA92BD81BD20BD0FB6F894FA9AC5
:0CF65000F99A0FBE01960895F894FFCFC0
:10F65C00FFFFE8031E0096000A0000017000000086
:10F66C0000000000545749424F4F542076332E333C
:04F67C00204E5200CA
:040000030000F00009
:00000001FF
