:107000000C9434380C949D390C949D390C949D3912
:107010000C949D390C949D390C949D390C949D3998
:107020000C949D390C949D390C949D390C949D3988
:107030000C949D390C949D390C949D390C949D3978
:107040000C949D390C949D390C949D390C949D3968
:107050000C949D390C949D390C949D390C949D3958
:107060000C949D390C949D39112411241FBECFEF2F
:10707000D8E0DEBFCDBF14BEE0E6F0E088E180835B
:10708000108211E0A0E0B1E0E8E2F9E702C005906B
:107090000D92A63AB107D9F722E0A6EAB1E001C005
:1070A0001D92A233B207E1F70E9458380C94923C2B
:1070B00014BE0FB6F894A895809160008861809303
:1070C0006000109260000FBE0E942D3C84B714BE79
:1070D0008EEF91E00E94693C21E220933102C0E0F2
:1070E0008730904BE1F488E591E00E94A639109238
:1070F00031028FEF9FEF909303018093020160E0D4
:1071000070E08EEF91E00E946F3C8FEF93E2E4EF2E
:1071100081509040E040E1F700C00000C1E080E312
:1071200084B92D9A85E085BD1092C50080E18093D9
:10713000C4008091C00082608093C00088E080938A
:10714000C10086E08093C2000E94543A88E2809396
:10715000BA0084E48093BC007894C11581F0C4E443
:10716000D5EC00E215EE80913102813221F580915B
:10717000AE01811120C08091A60181111CC0109226
:10718000BC0015BC15B880E090E000000197E9F75D
:107190008091AE01811541F082E791E00E94A6390D
:1071A0000E945D3B1092AE018BE891E00E94A639EF
:1071B000E0E0F0E009958091AA019091AB01019681
:1071C0008093AA019093AB01C093BC008091A6016B
:1071D000811539F08091AE0181110E945D3B1092C2
:1071E000A6018091BC0087FF40C08091B900887FD4
:1071F000803A09F485C070F4803809F44FC08838AB
:1072000009F46FC0803661F18091BC008061809389
:10721000BC0029C0883B41F0803C09F481C0883A19
:1072200099F71092A9012C9A61E083E00E94FD3B3E
:10723000E091A90181E08E0F8093A9018091310234
:107240008231E9F1823209F43FC0813009F047C050
:10725000EF70F0E0E45FFE4F80818093BB0003C0DD
:107260001092A9012C9AD093BC00A89B7CCF16BD8C
:1072700085B1802785B98091020190910301029721
:1072800008F450C0809102019091030101979093FE
:1072900003018093020181E085BB65CF6091BB0053
:1072A0008091A90191E0980F9093A9010E94DE3985
:1072B0008111D9CF61E082E00E94FD3BD4CFE7701D
:1072C000F0E0EC5FFE4FC8CFE091AF01F091B0016C
:1072D00084913196E093AF01F093B001BECF8FEF70
:1072E000BCCF61E084E00E94FD3B6091BB008091D7
:1072F000A90191E0980F9093A9010E94DE39B3CFC4
:1073000080913102823449F48091AF018F7790E00F
:10731000892B19F481E08093A6011092A901A3CFD3
:107320002C98A1CF8091020190910301019709F05F
:10733000B2CF81E280933102AECF0C9400389091AD
:10734000C00095FFFCCF8093C6000895CF93DF93D4
:10735000EC018881811103C0DF91CF9108952196BE
:107360000E949F39F6CF8F708A3010F4805D0895A7
:10737000895C08952091AF013091B001622F6F7741
:10738000462F50E0F901E61BF109BF01E09300012F
:1073900070930101FA01EF54FE4F80832F5F3F4F3E
:1073A0002093AF013093B00181E08093AE014F5F35
:1073B0005F4F4093AC015093AD010895982F862FF5
:1073C000923009F453C060F4911117C06330F8F49F
:1073D00010920301109202018093310281E008951E
:1073E000933009F448C090913102923209F458C0A8
:1073F000923449F40E94BA39F1CF90913102913020
:1074000021F0923021F180E00895603821F481E28A
:1074100080933102F8CF6111F6CF87E090EB809333
:10742000A7019093A801BC018EEF91E00E946F3CF0
:107430008CE191E00E94A63988E198E00FB6F894BB
:10744000A895809360000FBE90936000FFCF6130DD
:1074500010F482E1C1CFB9F682E28093310210923A
:10746000AE011092AC011092AD01B8CF1092AF01F5
:107470006093B001B3CF2091AF013091B001262BC2
:107480002093AF013093B0018091000190910101F0
:10749000019609F0A3CF10920001109201019ECF36
:1074A00092E490933102A6CF87B1836087B988B107
:1074B0008C7F88B9089527E030E090E0AC01022E7F
:1074C00002C0559547950A94E2F740FF13C0409AD1
:1074D000419AE7ECF0E03197F1F700C000004198E5
:1074E000E7ECF0E03197F1F700C0000021503109DE
:1074F00028F708954098ECCFCF93DF93CDB7DEB750
:107500002B970FB6F894DEBF0FBECDBFCB014AE07C
:10751000BE016F5F7F4F0E94343CCE0101960E94F6
:10752000A6392B960FB6F894DEBF0FBECDBFDF9104
:10753000CF910895CF93DF93CDB7DEB728970FB6DD
:10754000F894DEBF0FBECDBF40E1BE016F5F7F4F3D
:107550000E94343CCE0101960E94A63928960FB6AF
:10756000F894DEBF0FBECDBFDF91CF910895CF92CB
:10757000DF92EF92FF920F931F93CF93DF936B01F4
:107580007C01EA018A01085F1F4F8C2D0E94B339EC
:10759000F80182938F0184E0F694E794D794C7941E
:1075A0008A95D1F7CE17DF0781F71886DF91CF9143
:1075B0001F910F91FF90EF90DF90CF900895FF9271
:1075C0000F931F93CF93DF93EC018C01060F171FCE
:1075D000C017D10731F4DF91CF911F910F91FF9028
:1075E0000895F9908F2D82958F700E94B3390E9473
:1075F0009F398F2D0E94B3390E949F3980E20E94EB
:107600009F39E6CFAF92BF92CF92DF92EF92FF9277
:107610000F931F93CF93DF93CDB7DEB729970FB6A4
:10762000F894DEBF0FBECDBFE12CF12C6701AE0197
:107630004F5F5F4FB601C7010E94B73ACE01019676
:107640000E94A63980E20E949F3986010F541E4F86
:1076500080E1A82EF801B1908F018B2D82958F705B
:107660000E94B3390E949F398B2D0E94B3390E942A
:107670009F3980E20E949F39AA9461F78AE00E94B4
:107680009F39F0E1CF0ED11CE11CF11C80E8C81637
:10769000D104E104F10459F629960FB6F894DEBF3F
:1076A0000FBECDBFDF91CF911F910F91FF90EF9053
:1076B000DF90CF90BF90AF900895FF920F931F93EC
:1076C000CF93DF93FFB6F894009100011091010170
:1076D000C091AC01D091AD01209711F4C0E8D0E089
:1076E000103738F07894DF91CF911F910F91FF9070
:1076F00008958CE391E00E94A639B80180E090E003
:107700000E947C3A87E491E00E94A639BE0180E0A5
:1077100090E00E947C3A84EA91E00E94A6390E949F
:10772000023B84EA91E00E94A6390FB6F894A8952E
:1077300080916000886180936000109260000FBEAD
:1077400007B600FCFDCF83E0F80187BFE89507B6D8
:1077500000FCFDCF98012E5F3F4FC80180589F4F1E
:107760002817390708F43EC021E0822F90E0F80185
:1077700021E04FEF5FEF0A0127BFE8951124329611
:107780000197C9F7CE01F801A1EBB1E021E0823009
:10779000910550F5CE018E7F9E01281B390B2130BB
:1077A000310569F4FC01E00FF11F8F549E4FDC019D
:1077B0008C9190E021E00C0127BFE895112485E031
:1077C000F80187BFE89507B600FCFDCF81E1809303
:1077D0005700E8951092AE011092AC011092AD01E5
:1077E000FFBE81CF20E4C1CF4D915D910A0127BF3B
:1077F000E895112432960297CACF9EEF980F9630E3
:10780000A0F44AB121E030E0F90101C0EE0F8A9501
:10781000EAF78E2F4E2B4AB99BB1611519F0892BCF
:107820008BB9089580958923FBCF8850833088F4E5
:1078300044B121E030E0F90101C0EE0F8A95EAF78A
:107840008E2F242F2E2B24B995B1611519F0892B79
:1078500085B9089580958923FBCF88E28093BA008B
:1078600085EC8093BC000895BB274A3031F49923FE
:1078700022F4BDE2909581959F4F0C94403CBB272C
:10788000FB015527AA27880F991FAA1FA41710F0DC
:10789000A41B83955051B9F7A05DAA3308F0A95DE8
:1078A000A193009779F7B111B1931192CB010C9488
:1078B000593CDC01FC01672F71917723E1F7329786
:1078C00004C07C916D9370836291AE17BF07C8F3BB
:1078D0000895A8E1B0E042E050E00C94763C0E94AC
:1078E000843C272F0C94853CDC01CB01FC01F999E9
:1078F000FECF06C0F2BDE1BDF89A319600B40D92FC
:1079000041505040B8F70895262FF999FECF1FBA7D
:1079100092BD81BD20BD0FB6F894FA9AF99A0FBEB8
:0879200001960895F894FFCFD1
:10792800FFFF10271E950F80700000005457494232
:107938004F4F542076332E33204E520041424F553C
:107948005420544F20444F20544845205457495FF1
:10795800444154412052455345540A0070616765BB
:1079680073746172743A002062797465735F746F1E
:107978005F77726974653A004E6F7720696E20747C
:10798800686520626F6F746C6F616465722E2E2E4D
:107998000A00504147452044495254592C207772D7
:1079A8006974696E67206E6F770A00526574757224
:1079B8006E696E6720746F20736C617665206170E4
:0679C800702E2E2E0A00B5
:040000030000700089
:00000001FF
