:020000021000EC
:10F0000014BEE0E6F0E088E18083108211248FEFE7
:10F0100090E49EBF8DBFF89414BE0FB6F894A895E7
:10F0200080916000886180936000109260000FBE44
:10F03000112411E0A0E0B1E0EEE1F6EF01E00BBF3A
:10F0400002C007900D92A432B107D9F722E0A4E2E2
:10F05000B1E001C01D92A133B207E1F714BE0FB6B3
:10F06000F894A89580916000886180936000109268
:10F0700060000FBEF89414BE0FB6F894A895809166
:10F080006000886180936000109260000FBE14BE23
:10F09000CAE0D0E061E085E00E94ABFA2FEF80E7A4
:10F0A00092E0215080409040E1F700C0000060E015
:10F0B00085E00E94ABFAEFEFF9EF20E0E150F0407D
:10F0C0002040E1F700C00000219721F70E94DBFA01
:10F0D00084B714BE8EEF91E00E94E6FA8730904B21
:10F0E00009F459C081E280932E0280E095E095BD3D
:10F0F00098E29093BA0094E49093BC0078948115C0
:10F1000009F49BC0C4E4D5EC01E015EE80912E0219
:10F11000813249F480912B01811105C08091280131
:10F12000811509F48AC080912501909126010196EC
:10F130008093250190932601C093BC008091250106
:10F1400090912601892B29F4809127018F5F80936C
:10F15000270180912801811521F00E9481F91092E8
:10F1600028018091BC0087FF4FC08091B900887F43
:10F17000803A09F48FC040F5803809F480C088389F
:10F1800009F47DC0803609F490C08091BC00806194
:10F190008093BC0037C010922E028FEF9FEF9093A8
:10F1A00003018093020160E070E08EEF91E00E9425
:10F1B000ECFAFFEF23EC89E0F15020408040E1F7CA
:10F1C00000C0000081E092CF883B31F0803CD1F05C
:10F1D000883AD9F610922401E091240181E08E0F43
:10F1E0008093240180912E028231A9F18232D1F1E3
:10F1F000813009F042C0EF70F0E0EC5EFE4F80819C
:10F200008093BB00D093BC00A89B12C016BD809118
:10F21000020190910301029708F44AC08091020113
:10F22000909103010197909303018093020105BB24
:10F2300080912701853108F469CF1092BC0015BC7C
:10F2400080912B01811521F00E9481F910922B01F0
:10F25000E0E0F0E00995EF70F0E0EE0FFF1FEC5FEB
:10F26000FE4FCDCFE0912C01F0912D01849131968C
:10F27000E0932C01F0932D01C3CF8FEFC1CF6091AC
:10F28000BB008091240191E0980F909324010E948B
:10F290003DFAB8CF80912E02823439F480912C014E
:10F2A000811103C081E08093280110922401AACF2C
:10F2B0008091020190910301019709F0B8CF91E28A
:10F2C00090932E02B4CF20912C0130912D011092F9
:10F2D000000130930101422F50E0FA01E25DFE4F40
:10F2E00080832F5F3F4F20932C0130932D0181E0CD
:10F2F00080932B014F5F5F4F4093290150932A0168
:10F3000008954F925F926F927F928F929F92AF92E9
:10F31000BF92CF92DF92EF92FF92109227018091DD
:10F320002B01811589F06FB7F8942091000130917D
:10F3300001018091290190912A01009711F480E048
:10F3400091E0383370F07894FF90EF90DF90CF9099
:10F35000BF90AF909F908F907F906F905F904F90F5
:10F3600008950FB6F894A8954091600048614093C5
:10F370006000109260000FBE07B600FCFDCF69016F
:10F38000E12CF12C43E0F601EBBE40935700E895E9
:10F3900007B600FCFDCFF9013296A9015F5F71E06D
:10F3A000E417F50708F470E8472F50E046015701CD
:10F3B00071E0AFEFBFEF0D01F401ABBE70935700EA
:10F3C000E895112441505109E2E08E0E911CA11CD8
:10F3D000B11C4115510579F7AC01D9017EE2A72E88
:10F3E00071E0B72E71E04230510570F5AC014E7FEF
:10F3F000FC01E41BF50B319791F4CA01820F931FB6
:10F40000A0E0B0E0425D5E4FFA01208130E041E0D3
:10F410000901FC01ABBF40935700E895112485E03A
:10F42000F601EBBE80935700E89507B600FCFDCFD0
:10F4300081E180935700E89510922B0110922901E9
:10F4400010922A016FBF80CFF501819091905F01EA
:10F450002D01612C712C0401F2016BBE70935700D9
:10F46000E8951124129642505109E42FEF73F0E011
:10F47000EF2B09F0B8CFA895B6CF982F862F9230F2
:10F4800009F44AC058F4911115C06330E0F41092A9
:10F4900003011092020180932E020895933009F423
:10F4A00040C090912E02923209F44FC0923409F478
:10F4B0004FC0089590912E02913019F09230E9F0EA
:10F4C0000895603811F481E2E6CF611143C087E00E
:10F4D00090EB80932F0290933002BC018EEF91E06D
:10F4E0000E94ECFA88E198E00FB6F894A895809312
:10F4F00060000FBE90936000FFCF613010F482E196
:10F50000CACF41F582E280932E0210922B01109215
:10F51000290110922A01089510922C0160932D0167
:10F52000089520912C0130912D01262B20932C0140
:10F5300030932D018091000190910101019651F4C9
:10F540001092000110920101089592E490932E020E
:10F550000C9463F908959EEF980F9630A0F44AB189
:10F5600021E030E0F90101C0EE0F8A95EAF78E2F15
:10F570004E2B4AB99BB1611519F0892B8BB90895AF
:10F5800080958923FBCF8850833088F444B121E0F3
:10F5900030E0F90101C0EE0F8A95EAF78E2F242F93
:10F5A0002E2B24B995B1611519F0892B85B90895D1
:10F5B00080958923FBCF88E28093BA00ECEBF0E0E2
:10F5C00084EC80838081816080830895A8E1B0E02D
:10F5D00042E050E00C94F3FA0E9401FB272F0C94B8
:10F5E00002FBDC01CB01FC01F999FECF06C0F2BDA4
:10F5F000E1BDF89A319600B40D9241505040B8F7F1
:10F600000895262FF999FECF1FBA92BD81BD20BD66
:0EF610000FB6F894FA9AF99A0FBE0196089573
:10F61E00FFFFE8031E009700050000013800000000
:10F62E0000000000545749424F4F542076332E337A
:04F63E00204E520008
:040000031000F000F9
:00000001FF
