:107000000C9434380C948F390C948F390C948F393C
:107010000C948F390C948F390C948F390C948F39D0
:107020000C948F390C948F390C948F390C948F39C0
:107030000C948F390C948F390C948F390C948F39B0
:107040000C948F390C948F390C948F390C948F39A0
:107050000C948F390C948F390C948F390C948F3990
:107060000C948F390C948F39112411241FBECFEF4B
:10707000D8E0DEBFCDBF14BEE0E6F0E088E180835B
:10708000108211E0A0E0B1E0ECE1F6E702C005906B
:107090000D92A432B107D9F721E0A4E2B1E001C01A
:1070A0001D92A13BB207E1F70E9458380C940C3BAB
:1070B00014BE0FB6F894A895809160008861809303
:1070C0006000109260000FBEF89414BE0FB6F894E2
:1070D000A8958091600088618093600010926000A4
:1070E0000FBE14BECAE0D0E061E085E00E94AC3A79
:1070F0002FEF80E792E0215080409040E1F700C000
:10710000000060E085E00E94AC3AEFEFF9EF20E08C
:10711000E150F0402040E1F700C00000219721F746
:107120000E94DC3A84B714BE8EEF91E00E94E33AED
:107130008730904B09F459C081E28093B00180E020
:1071400095E095BD98E29093BA0094E49093BC00CA
:107150007894811509F49BC0C4E4D5EC01E015EEE8
:107160008091B001813249F480912D01811105C0D7
:1071700080912501811509F48AC08091290190919F
:107180002A0101968093290190932A01C093BC00A3
:107190008091290190912A01892B29F48091240161
:1071A0008F5F8093240180912501811521F00E9439
:1071B000B539109225018091BC0087FF4FC08091A6
:1071C000B900887F803A09F48FC040F5803809F40F
:1071D00080C0883809F47DC0803609F492C080915F
:1071E000BC0080618093BC0037C01092B0018FEF6B
:1071F0009FEF909303018093020160E070E08EEFB7
:1072000091E00E94E93AFFEF23EC89E0F150204041
:107210008040E1F700C0000081E092CF883B31F070
:10722000803CD1F0883AD9F610922801E0912801EB
:1072300081E08E0F809328018091B0018231A9F105
:107240008232D1F1813009F042C0EF70F0E0EC5EA3
:10725000FE4F80818093BB00D093BC00A89B12C0DE
:1072600016BD8091020190910301029708F44CC071
:107270008091020190910301019790930301809303
:10728000020105BB80912401853108F469CF109279
:10729000BC0015BC80912D01811521F00E94B539EB
:1072A00010922D01E0E0F0E00995EF70F0E0EE0FB4
:1072B000FF1FEC5FFE4FCDCFE0912E01F0912F012B
:1072C00084913196E0932E01F0932F01C3CF8FEF7D
:1072D000C1CF6091BB008091280191E0980F9093FD
:1072E00028010E943E3AB8CF8091B001823449F41F
:1072F00080912E018F7790E0892B19F481E08093A3
:10730000250110922801A8CF8091020190910301DC
:10731000019709F0B6CF91E29093B001B2CF0C94EF
:10732000003820912E0130912F01622F6F77462F68
:1073300050E0F901E61BF109BF01E09300017093F1
:107340000101FA01E05DFE4F80832F5F3F4F2093E4
:107350002E0130932F0181E080932D014F5F5F4F0D
:1073600040932B0150932C010895CF93DF931092FB
:10737000240180912D01811589F06FB7F894209137
:1073800000013091010180912B0190912C01009717
:1073900011F480E890E0383320F07894DF91CF91B9
:1073A00008950FB6F894A895409160004861409305
:1073B0006000109260000FBE07B600FCFDCF43E0F6
:1073C000F90147BFE89507B600FCFDCFF9013296F9
:1073D000A90140585F4F71E0E417F50708F470E425
:1073E000472F50E0F90171E0AFEFBFEF0D0177BF1C
:1073F000E8951124329641505040C1F7AC01F90193
:10740000A0E3B1E071E04230510538F5AC014E7FA8
:10741000FC01E41BF50B319769F4FA01E20FF31F4D
:10742000405D5E4FDA018C9190E041E00C0147BF76
:10743000E895112485E0F90187BFE89507B600FCBF
:10744000FDCF81E180935700E89510922D011092B5
:107450002B0110922C016FBFA1CFCD91DD910E01B8
:1074600077BFE8951124329642505109C42FCF734B
:10747000D0E0CD2B09F0C7CFA895C5CF982F862F88
:10748000923009F44AC058F4911115C06330E0F409
:1074900010920301109202018093B001089593307D
:1074A00009F440C09091B001923209F44FC0923477
:1074B00009F44FC008959091B001913019F09230C5
:1074C000E9F00895603811F481E2E6CF611143C01C
:1074D00087E090EB8093260190932701BC018EEF0B
:1074E00091E00E94E93A88E198E00FB6F894A895F7
:1074F000809360000FBE90936000FFCF613010F466
:1075000082E1CACF41F582E28093B00110922D0151
:1075100010922B0110922C01089510922E0160936D
:107520002F01089520912E0130912F01262B2093B9
:107530002E0130932F01809100019091010101965D
:1075400051F41092000110920101089592E4909379
:10755000B0010C94913908959EEF980F9630A0F4E5
:107560004AB121E030E0F90101C0EE0F8A95EAF757
:107570008E2F4E2B4AB99BB1611519F0892B8BB90F
:10758000089580958923FBCF8850833088F444B1D7
:1075900021E030E0F90101C0EE0F8A95EAF78E2F65
:1075A000242F2E2B24B995B1611519F0892B85B99B
:1075B000089580958923FBCF88E28093BA0084ECFC
:1075C0008093BC000895A8E1B0E042E050E00C9444
:1075D000F03A0E94FE3A272F0C94FF3ADC01CB01CF
:1075E000FC01F999FECF06C0F2BDE1BDF89A3196D3
:1075F00000B40D9241505040B8F70895262FF999E4
:10760000FECF1FBA92BD81BD20BD0FB6F894FA9A85
:0C761000F99A0FBE01960895F894FFCF80
:10761C00FFFFE8031E0095000F00800038000000FB
:10762C0000000000545749424F4F542076332E33FC
:04763C00204E52008A
:040000030000700089
:00000001FF

