:107000000C9414380C9435390C9435390C9435396A
:107010000C9435390C9435390C9435390C94353938
:107020000C9435390C943539112411241FBECFE549
:10703000D8E0DEBFCDBF14BE88E181BD11BC10E039
:10704000A0E6B0E0E8E5F5E702C005900D92A438AF
:10705000B107D9F721E0A4E8B0E001C01D92A13149
:10706000B207E1F70E9436380C94AA3A14BE0FB664
:10707000F894A89581B5886181BD11BC0FBE14BE7E
:107080000E947D3A84B714BE8EEF91E00E94823A4E
:107090008730904B09F452C081E28093100180E068
:1070A00095E093BF98E292B994E496BF78948115E5
:1070B00009F495C0C4E4D5EC01E015EE809110010F
:1070C000813249F480918D00811105C08091850045
:1070D000811509F484C08091890090918A000196FD
:1070E0008093890090938A00C6BF80918900909117
:1070F0008A00892B29F4809184008F5F809384001B
:1071000080918500811521F00E945B3910928500E5
:1071100006B607FE4AC081B1887F803A09F48AC06A
:1071200030F5803809F47CC0883809F479C080369D
:1071300009F48DC086B7806186BF36C010921001F9
:107140008FEF9FEF909363008093620060E070E0A8
:107150008EEF91E00E94883A8FEF93ECE9E0815046
:107160009040E040E1F700C0000081E099CF883B0B
:1071700031F0803CC9F0883AE9F610928800E0913D
:10718000880081E08E0F8093880080911001823109
:1071900099F18232C1F1813009F040C0EF70F0E026
:1071A000EC58FF4F808183B9D6BF08B600FE12C0ED
:1071B00012BF8091620090916300029708F44AC068
:1071C0008091620090916300019790936300809397
:1071D000620008BF80918400853108F46FCF16BE2D
:1071E00013BE80918D00811521F00E945B391092B1
:1071F0008D00E0E0F0E00995EF70F0E0EE0FFF1F8A
:10720000EC59FF4FCFCFE0918E00F0918F00849129
:107210003196E0938E00F0938F00C5CF8FEFC3CFF0
:1072200063B18091880091E0980F909388000E944C
:10723000E139BACF80911001823449F480918E00F7
:107240008F7790E0892B19F481E08093850010926C
:107250008800AACF8091620090916300019709F0A5
:10726000B8CFF1E2F0931001B4CF0C940038209124
:107270008E0030918F00622F6F77462F50E0F9011A
:10728000E61BF109BF01E093600070936100FA0111
:10729000E057FF4F80832F5F3F4F20938E00309346
:1072A0008F0081E080938D004F5F5F4F40938B0094
:1072B00050938C000895CF93DF93109284008091B7
:1072C0008D00811589F06FB7F8942091600030919E
:1072D000610080918B0090918C00009711F480E800
:1072E00090E0303720F07894DF91CF9108950FB679
:1072F000F894A89541B5486141BD11BC0FBE07B6D1
:1073000000FCFDCF43E0F90147BFE89507B600FC5C
:10731000FDCFF9013296A90140585F4F71E0E417A3
:10732000F50708F470E4472F50E0F90171E0AFEF82
:10733000BFEF0D0177BFE8951124329641505040C0
:10734000C1F7AC01F901A0E9B0E071E042305105AC
:1073500038F5AC014E7FFC01E41BF50B319769F465
:10736000FA01E20FF31F40575F4FDA018C9190E072
:1073700041E00C0147BFE895112485E0F90187BF82
:10738000E89507B600FCFDCF81E180935700E895B2
:1073900010928D0010928B0010928C006FBFA4CFC2
:1073A000CD91DD910E0177BFE895112432964250C0
:1073B0005109C42FCF73D0E0CD2B09F0C7CFA895CA
:1073C000C5CF982F862F923009F448C058F49111F8
:1073D00015C06330E0F41092630010926200809355
:1073E00010010895933009F43EC09091100192323B
:1073F00009F44DC0923409F44DC0089590911001E4
:10740000913019F09230D9F00895603811F481E28A
:10741000E6CF611141C087E090EB809386009093A6
:107420008700BC018EEF91E00E94883A88E198E0E5
:107430000FB6F894A89581BD0FBE91BDFFCF613006
:1074400010F482E1CCCF41F582E2809310011092DA
:107450008D0010928B0010928C00089510928E0077
:1074600060938F00089520918E0030918F00262B1D
:1074700020938E0030938F00809160009091610086
:10748000019651F41092600010926100089592E408
:10749000909310010C94373908959EEF980F963011
:1074A000A0F441B321E030E0F90101C0EE0F8A956C
:1074B000EAF78E2F4E2B41BB92B3611519F0892B41
:1074C00082BB089580958923FBCF8850833088F450
:1074D00047B321E030E0F90101C0EE0F8A95EAF7E9
:1074E0008E2F242F2E2B27BB98B3611519F0892BD3
:1074F00088BB089580958923FBCF88E282B984EC0C
:1075000086BF0895A8E1B0E042E050E00C948F3AC5
:107510000E949D3A272F0C949E3ADC01CB01FC017E
:10752000E199FECF06C0FFBBEEBBE09A31960DB2EB
:107530000D9241505040B8F70895262FE199FECFA3
:107540009FBB8EBB2DBB0FB6F894E29AE19A0FBE9B
:0875500001960895F894FFCFA5
:10755800FFFFE8031E009500020080007000000095
:1075680000000000545749424F4F542076332E33C1
:04757800204E52004F
:040000030000700089
:00000001FF
