:100000000C946F010C94A0010C94A0010C94A0011D
:100010000C94A0010C94A0010C94A0010C94A001DC
:100020000C94A0010C94A0010C94A0010C94A001CC
:100030000C94B2120C94A0010C94A0010C94A00199
:100040000C94A0010C94BC120C94A0010C94A0017F
:100050000C94A0010C94A0010C94A0010C944411E8
:100060000C94A0010C940E110C94E4100C94A001BB
:100070000C94A0010C94A0010C94A0010C94A0017C
:100080000C94A0010C94A0010C94A0010C94A0016C
:100090000C94A0010C94A0010C94A0010C948E115E
:1000A0000C94A0010C94A0010C94A0010C94A0014C
:1000B0000C94A0010C94A0010C94A0010C94A0013C
:1000C0000C94A0010C94A0010C94A0010C94A0012C
:1000D0000C94A0010C94A0010C94A0010C94A0011C
:1000E0000C94A0010C94AE010C9418100C94B10B5C
:1000F0000C9445030C9414020C9461030C940E10A0
:100100000C9455100C9436020C9430030C94340368
:100110000C9469100C9420100C944F030C946503FC
:100120000C9428100C9432100C9473100C947E04D0
:100130000C945F100C9487100C9405020C943F03F0
:100140000C946E040C94B4040C9453030C947D1022
:100150000C9457030C94BB020C94F00F0C946E0299
:100160000C9491040C94D8010C946F030C946B03C1
:100170000C9453060C946F040C942A030C94A20163
:100180000C9446100C9404100C94FA0F0C943C1030
:100190000C94F50F0C94C5060C946A030C94380368
:1001A0000C9498040C943C030C945D030C94311350
:1001B0000C9428020C94A3040C9449030000200022
:1001C0002300260029002C002F003200000100002F
:1001D00003010601090100002100240027002A0074
:1001E0002D003000330001010000040107010A0165
:1001F00000002200250028002B002E0031003400D2
:1002000002010000050108010B01050505050705B0
:1002100008080808020202020A0A08080404040482
:1002200001010101010101010303030303030303AE
:10023000040707070C0C0C0C0C0C0C0C020202023D
:1002400006060606060606060B0B0B0B0B0B0B0B26
:1002500001021020200808102040102040800201D8
:1002600002010804020101020408102040808040BD
:1002700020100804020180040201804020100804BC
:10028000020108040201010204081020408001025A
:1002900004081020408000000A0B02090C0D0E0813
:1002A000070304010000000000000000000000003F
:1002B000000000000000000000000000000000003E
:1002C00000001211100000000000000000000000FB
:1002D00000000000000000000000000031131124A5
:1002E0001FBECFEFD1E2DEBFCDBF00E00CBF12E0FA
:1002F000A0E0B2E0E2E8F1E300E00BBF02C007904B
:100300000D92A63DB107D9F727E0A6EDB2E001C0F6
:100310001D92AC36B207E1F711E0CFE6D1E000E084
:1003200006C021970109802FFE010E947118CE3668
:10033000D10780E00807A9F70E946A130C94BF1840
:100340000C940000E091A305F091A405309729F0EA
:1003500010929E0510929D0519940895CF93DF93F6
:10036000AC01E091A105F091A2053097F1F09091D8
:10037000A00580919F059817C0F090E0292F30E0EC
:100380002617370754F4D901AD5FBA4F240F351F34
:10039000E90128812C939F5FF1CF1092A005609313
:1003A0009F05CB01DF91CF911994DF91CF910895F3
:1003B000AF92BF92CF92DF92EF92FF920F931F9373
:1003C000CF93DF936C017B018B01040F151FEB01B1
:1003D0005E01AE18BF08C017D10759F06991D60168
:1003E000ED91FC910190F081E02DC6011995892BCA
:1003F00079F7C501DF91CF911F910F91FF90EF9099
:10040000DF90CF90BF90AF900895FC01538D448D45
:10041000252F30E0842F90E0821B930B541710F0AF
:10042000CF96089501970895FC01918D828D9817BC
:1004300061F0A28DAE0FBF2FB11D5D968C91928D94
:100440009F5F9F73928F90E008958FEF9FEF0895C5
:10045000FC01918D828D981731F0828DE80FF11D8E
:10046000858D90E008958FEF9FEF0895FC01918DA9
:10047000228D892F90E0805C9F4F821B91098F73A2
:10048000992708958BEB96E00E94360221E0892B94
:1004900009F420E0822F0895FC01A48DA80FB92F44
:1004A000B11DA35ABF4F2C91848D90E001968F739C
:1004B0009927848FA689B7892C93A089B1898C91BB
:1004C000837080648C93938D848D981306C002880A
:1004D000F389E02D80818F7D80830895EF92FF92D4
:1004E0000F931F93CF93DF93EC0181E0888F9B8D57
:1004F0008C8D98131AC0E889F989808185FF15C011
:100500009FB7F894EE89FF896083E889F989808133
:100510008370806480839FBF81E090E0DF91CF9102
:100520001F910F91FF90EF900895F62E0B8D10E024
:100530000F5F1F4F0F731127E02E8C8D8E110CC093
:100540000FB607FCFACFE889F989808185FFF5CFDE
:10055000CE010E944C02F1CFEB8DEC0FFD2FF11D6F
:10056000E35AFF4FF0829FB7F8940B8FEA89FB891B
:1005700080818062CFCFCF93DF93EC01888D882379
:10058000B9F0AA89BB89E889F9898C9185FD03C0F6
:10059000808186FD0DC00FB607FCF7CF8C9185FFDB
:1005A000F2CF808185FFEDCFCE010E944C02E9CFD2
:1005B000DF91CF91089580E090E0892B29F00E948F
:1005C000420281110E94000080E090E0892B49F0F6
:1005D00080E090E0892B29F00E94000081110E94A8
:1005E000000080E090E0892B49F080E090E0892BCA
:1005F00029F00E94000081110E94000080E090E03C
:10060000892B49F080E090E0892B29F00E940000BE
:1006100081110C94000008958150823108F05AC075
:10062000E82FF0E08827E85EFC4F8F4F0C9471189C
:1006300038033C032A03300334036A033F034503B2
:1006400049034F03530357035D0361036A036503C3
:100650006B036F03809180008F77809380000895F3
:10066000809180008F7DF9CF80918000877FF5CFCA
:1006700084B58F7784BD089584B58F7DFBCF80913D
:10068000B0008F778093B00008958091B0008F7D87
:10069000F9CF809190008F7780939000089580919A
:1006A00090008F7DF9CF80919000877FF5CF80916A
:1006B000A0008F778093A00008958091A0008F7D87
:1006C000F9CF8091A000877FF5CF809120018F77AF
:1006D000809320010895809120018F7DF9CF809132
:1006E0002001877FF5CF1F93CF93DF93282F30E032
:1006F000F901EA56FD4F8491F901E05BFD4FD49179
:10070000F901E65FFD4FC491CC23A9F0162F8111AA
:100710000E940C03EC2FF0E0EE0FFF1FE051FE4FA4
:10072000A591B4918FB7F894EC91111108C0D095B0
:10073000DE23DC938FBFDF91CF911F910895DE2BD5
:10074000F8CFCF93DF9390E0FC01E05BFD4F249165
:10075000865F9D4FFC0184918823D1F090E0880F43
:10076000991FFC01EA52FE4FA591B491FC01E051A2
:10077000FE4FC591D49161110EC09FB7F8948C9132
:10078000E22FE0958E238C932881E223E8839FBF9C
:10079000DF91CF9108958FB7F894EC91E22BEC9311
:1007A0008FBFF6CF3FB7F89480919405909195054F
:1007B000A0919605B091970526B5A89B05C02F3F3F
:1007C00019F00196A11DB11D3FBFBA2FA92F982F77
:1007D0008827BC01CD01620F711D811D911D42E072
:1007E000660F771F881F991F4A95D1F708958F923A
:1007F0009F92AF92BF92CF92DF92EF92FF924B0106
:100800005C010E94D2036B017C010E94D2036C192F
:100810007D098E099F09683E734081059105A8F303
:1008200021E0821A9108A108B10888EEC80E83E081
:10083000D81EE11CF11C81149104A104B10429F714
:10084000FF90EF90DF90CF90BF90AF909F908F90F0
:10085000089520914905260F3327331F2132310592
:10086000ECF420916D05FC0190E080E0243069F00B
:1008700082E00895A09149052191AC01475D5A4F4E
:10088000A40FB52FB11D2C930196861798F3809174
:100890004905680F6093490580E0089581E0089557
:1008A00010926D0581E080936F0510926E0561E0F6
:1008B00084E10E94730361E085E10E947303E9EB28
:1008C000F0E080818E7F808380818D7F808388E4CB
:1008D0008093B80085E48093BC0008950895E0916A
:1008E000A00580919F05E81730F4F0E0ED5FFA4F26
:1008F000808190E008958FEF9FEF08959091A0057B
:1009000080919F052FEF3FEF981748F4E92FF0E013
:10091000ED5FFA4F208130E09F5F9093A005C90101
:10092000089580919F059091A005891B990B0895CA
:10093000CF93DF93CB01EA01642F0E942904CE01FB
:10094000DF91CF910895CF93DF931F92CDB7DEB79C
:10095000698361E0CE0101960E94290481E090E064
:100960000F90DF91CF91089590E080E0089540E0EE
:10097000FC0120812223A9F09C01C901F9015191B8
:10098000503269F0552369F0641769F0C9012F5F8F
:100990003F4FFC0150815F7DC9F74F5FE9CF9F0159
:1009A000ECCF80E090E00895F89494B7977F94BFDF
:1009B000E0E6F0E090819861908380648083789491
:1009C000089583B7817F846083BF83B7816083BFCD
:1009D000889583B78E7F83BF089583B7817F83BF58
:1009E00083B7816083BF889583B78E7F83BF089567
:1009F000CF92DF92EF92FF926B017C01C114D10480
:100A0000E104F104E1F188E0C816D104E104F10445
:100A100058F081E20E94D4040E94E10488E0C81AE0
:100A2000D108E108F108EACF84E0C816D104E10456
:100A3000F10458F080E20E94D4040E94E10484E0B2
:100A4000C81AD108E108F108D9CF81E0C816D1044D
:100A5000E104F10459F086E00E94D4040E94E1040C
:100A600082E0C81AD108E108F108C8CF84E00E94EA
:100A7000D404FF90EF90DF90CF900C94E104FF90AE
:100A8000EF90DF90CF9008950F931F93CF93DF9354
:100A9000FC01EB018B01040F151FC017D10731F1C9
:100AA000248135818991A081B181A20FB31F8C93DC
:100AB00084819581228133810196B9010E942A188F
:100AC00095838483808591858217930730F4808590
:100AD0009185019691878087E0CF868197810196E5
:100AE000B9010E942A1897838683D7CFDF91CF91CF
:100AF0001F910F910895CF92DF92EF92FF92CF93C3
:100B0000DF93CDB7DEB7EC970FB6F894DEBF0FBE1C
:100B1000CDBF9CE3EAE1F2E0DE01119601900D9277
:100B20009A95E1F794E0899FF001112481E090E02B
:100B30008C0F9D1FE80FF91FC080D180E280F380E9
:100B4000C114D104E104F10409F49EC08BEB96E0DA
:100B50000E94BB02E091CD06F091CE0680818F7E8F
:100B60008083E091CD06F091CE068081877F8083DF
:100B7000E091CD06F091CE0680818F778083E09161
:100B8000CD06F091CE0680818F7D80838091D50641
:100B90008093D40662E070E080E090E00E94F7036A
:100BA000E091CB06F091CC0682E08083C11491EEF7
:100BB000D906E104F104A1F060E079E08DE390E072
:100BC000A70196010E94EE172150310941095109F0
:100BD0005695479537952795211580E13807A8F058
:100BE000E091CB06F091CC06108260E874E88EE1CB
:100BF00090E0A70196010E94EE17215031094109AA
:100C000051095695479537952795E091C706F0917C
:100C1000C8063083E091C906F091CA06208310927D
:100C2000D306E091CF06F091D00686E08083E09174
:100C3000CD06F091CE06808180618083E091CD0663
:100C4000F091CE06808188608083E091CD06F0919E
:100C5000CE06808180688083E091CD06F091CE063B
:100C600080818F7D808362E070E080E090E00E9470
:100C7000F7038BEB96E00E943602892B29F08BEB71
:100C800096E00E941402F5CFC701B601EC960FB6AC
:100C9000F894DEBF0FBECDBFDF91CF91FF90EF90F4
:100CA000DF90CF90089588EC80937C0080917A004B
:100CB000806880937A0065E070E080E090E00E94B8
:100CC000F70380917A00806480937A0080917A00A3
:100CD00086FDFCCF80917A00806480937A008091B9
:100CE0007A0086FDFCCF2091780030917900ACE449
:100CF000B4E00E941B189B01AC018AE05595479512
:100D0000379527958A95D1F72A53314041095109E2
:100D1000A4E6B0E00E9410182AE730E040E050E07E
:100D20000E945218CA01B90166507F4F8F4F9F4FE2
:100D3000072E000C880B990B0895CF938091DC024D
:100D40009091DD0201969093DD028093DC02C091C8
:100D5000B60660E08C2F0E94730364E670E080E0CA
:100D600090E00E94F70361E08C2FCF910C94730305
:100D7000FC0101900020E9F73197AF01481B590BA6
:100D8000BC018BEB96E00C94D801EF92FF920F938D
:100D90001F93CF93DF9300D01F92CDB7DEB783B7F9
:100DA0008E7F83BF81E08093BA068091DE0282301D
:100DB00061F5F12CE12C809100028E151F04C1F029
:100DC000BCF00091820610918306C8010E94C817EA
:100DD000682F88E597E00E94A3040F5F1F4F1370F0
:100DE00010938306009382068FEFE81AF80AE3CF88
:100DF0001092DE020F900F900F900F90DF91CF9125
:100E00001F910F91FF90EF9008958091F502882334
:100E100009F441C080910E0290910F02819750F524
:100E2000E0900E02F0900F0210E000E00E151F059A
:100E300029F180910C0290910D02E0910602F0914F
:100E40000702E80FF91F608188E597E00E94A3047C
:100E500080910C0290910D020196609108027091B0
:100E600009020E942A1890930D0280930C020F5FD2
:100E70001F4FDCCF80E2E82EF12CD6CF80910E02FE
:100E800090910F02801B910B90930F0280930E02A2
:100E90001092F502AFCF8091DF02882369F10091B3
:100EA0008103002331F18091E002102F181B1F31C4
:100EB00008F01EE1F12CE12CE11688F4E091E0024B
:100EC000C70189509D4FE80FF92FF11D608188E51A
:100ED00097E00E94A3048FEFE81AF80AEDCF809103
:100EE000E002180F1093E0028091E002801708F4EE
:100EF00081CF1092DF027ECF8091F1029091F202B9
:100F0000A091F302B091F40289839A83AB83BC83EE
:100F100044E050E0BE016F5F7F4F88E597E00E949C
:100F2000980468CFCF93DF9385ED8093BC008091C8
:100F3000250590912605A0912705B09128050796D3
:100F4000A11DB11D23E0B695A795979587952A9584
:100F5000D1F72091BC0024FD03C010926D0536C06E
:100F6000409125055091260560912705709128052F
:100F7000452B462B472B69F30097A105B10541F09E
:100F80002AE22A95F1F700C00197A109B109E1CF42
:100F90008091240591E0909323058823B9F0C091B6
:100FA000B800D091BA008091BC008A7B8093BC00CD
:100FB00060E084E10E94730360E085E10E947303B6
:100FC0000E945004D093BA00C093B800DF91CF9133
:100FD00008952F923F924F925F926F927F928F92DD
:100FE0009F92AF92BF92CF92DF92EF92FF920F93B8
:100FF0001F93CF93DF93CDB7DEB7CE5ED1400FB650
:10100000F894DEBF0FBECDBF56EAC52E56E0D52EF2
:1010100005E012E0C8010E94C817F82EC801019728
:101020000E94C817982F8F2DF601819391936F011D
:101030000E5F1F4F0931F2E01F0761F7AE014F5FEE
:101040005F4F6A0133E8E32E33E0F32EB12CA12C7D
:1010500049E1842E42E0942E5A2C8601712C5FEFD8
:10106000851A950AC40101970E94C817682E6CE082
:1010700070E080E090E00E94F70380E8861508F4B5
:101080007BC061107EC0772009F476C0F601E70DC1
:10109000F11D108240E850E0B601CE0187599E4F05
:1010A0000E949618C851DE4F1882C85ED14066E88B
:1010B00072E0CE0187599E4F0E949217009709F463
:1010C00095C087010358134040E250E0BC01C701BE
:1010D0000E94961866E872E090E080E00E94921705
:1010E000009709F483C040E250E0BC01C70180963C
:1010F0000E949618A701405C5F4FC751DE4F59838D
:101100004883C95ED140FA01108233243A94A80181
:101110004F5B5F4FC351DE4F59834883CD5ED14053
:1011200025015694542C442457944794C2018D575A
:101130009C4F3C0166E872E090E080E00E949217CC
:10114000009709F453C0FC012081222359F12D326C
:1011500019F12B3209F1F0E0E0E0E80FF91F2191DD
:10116000222309F470C0022E000C330B20533109E6
:101170002A303105A0F316C050928203662009F48C
:1011800085CF7394F80161928F01F7E77F1267CFE3
:10119000F601E958FF4F7DCFFC012181E1E0F0E04D
:1011A0002111DBCFC751DE4FE881F981C95ED14003
:1011B000308021E0230D2083C351DE4F2881398107
:1011C000CD5ED140FCE03F9E200D311D11244CE04E
:1011D00050E0BC01C9018D579C4F0E949618F30145
:1011E000E30DF11DE358FF4F1082A4CF80919805C5
:1011F0008F5F80939805FFEFAF1ABF0A20E8E20ED9
:10120000F11C48E7C40ED11C53E0A516B10409F047
:1012100023CFC251DE4F0FB6F894DEBF0FBECDBF55
:10122000DF91CF911F910F91FF90EF90DF90CF90C2
:10123000BF90AF909F908F907F906F905F904F90F6
:101240003F902F900895EFEF3E1609F473CF032DD2
:1012500010E09301200F311FA90143585F4FC55182
:10126000DE4F59834883CB5ED140FA012080F7E0FE
:10127000F21508F45FCF0E946B1791E0920DC551F3
:10128000DE4FE881F981CB5ED140908393E0000F7F
:10129000111F9A95E1F7040D151D0D571C4F020DF6
:1012A000111DF801EB59FF4F8083809181038F5FFF
:1012B000809381033FCFCF92DF92EF92FF920F9303
:1012C0001F93CF93DF9300D0CDB7DEB77C016B01C6
:1012D000FC010081802F002E000C990B0E948118C8
:1012E000892B21F1F7011181812F012E000C990B1F
:1012F0000E948118892BD1F01B8209831A8340E157
:1013000050E070E060E0CE0101960E946816F601A0
:10131000608381E00F900F900F90DF91CF911F912C
:101320000F91FF90EF90DF90CF90089580E0F2CF83
:101330002F923F924F925F926F927F928F929F92E5
:10134000AF92BF92CF92DF92EF92FF920F931F93D3
:10135000CF93DF93CDB7DEB72C970FB6F894DEBFEF
:101360000FBECDBF8091B8069091B906059708F0E1
:1013700050C08BEB96E00E943602892B29F18BEB53
:1013800096E00E941402E091F6028A30B1F5F0E096
:10139000E35EFC4F10821092F602E090980503E89D
:1013A00013E0F12CEF1409F489C0F801808188233F
:1013B00009F480C0B8018DE193E00E94A518892B43
:1013C00009F478C0F09201022C960FB6F894DEBFB3
:1013D0000FBECDBFDF91CF911F910F91FF90EF9086
:1013E000DF90CF90BF90AF909F908F907F906F9045
:1013F0005F904F903F902F900895E33608F0B9CF5B
:1014000091E09E0F9093F602F0E0E35EFC4F808344
:10141000B0CFF89480911602909117024091180273
:101420005091190278949A014436510510F023E640
:1014300030E06091100270911102E0901202F09081
:101440001302EDE1F3E08F010D5113400217130772
:1014500068F48B01080F191FD8011C911193019694
:101460008E159F0580F390E080E0EDCFF901E35EFB
:10147000FC4F1082452B09F490CFF894809116020E
:1014800090911702820F931F6091120270911302C4
:101490000E942A18909317028093160280911802D6
:1014A00090911902821B930B90931902809318025A
:1014B000789473CFF39400581F4F74CF209101029A
:1014C00027FD82CF30E8230360011124B6016D555A
:1014D0007C4FDB018C91882351F08DE193E00E94D9
:1014E000A518892B21F08FEF809301026DCF10E0BA
:1014F000F601ED57FC4FFC83EB83E05CFF4FF88770
:10150000EF8396012F5B3F4F3C872B873CE0432EB8
:10151000AF81B8858C91181708F056CFE12EF12CC9
:101520008B859C85149D800D911D1124FC01ED5728
:10153000FC4F5F01BF018DE193E00E94A518892B4C
:1015400009F40DC18091B8069091B906039781F412
:101550004DE153E0DA010D900020E9F7AD014E5165
:1015600053406DE173E086E092E00E9444052CCF89
:10157000612C8B819C818E0D9F1DFC01E358FF4FD8
:10158000FA87E98723E0EE0CFF1C2A95E1F7C701F3
:101590008C0D9D1D9C012D573C4F3E832D83262C89
:1015A000312C41013FEF831A930AA985BA858C91AA
:1015B0008815190409F00CF4D2C0B5018DE193E04F
:1015C0000E94A518009709F48DC0ED81FE81E20DFF
:1015D000F31DEB59FF4F7080ED81FE818E0E9F1E33
:1015E000F401EB59FF4F00815090B006F5010190D6
:1015F0000020E9F731977F01EA18FB08E80EF91E91
:1016000051FE50C04701870C911CE00EF11C811463
:10161000910409F467C0701621F0E114F10409F493
:1016200061C01A82198250FE4AC0D4018C918A830B
:10163000701609F442C0E114F10409F43EC0F70148
:1016400080818983701251C08A8190E04091190392
:1016500050911A0360911B0370911C034093150372
:10166000509316036093170370931803609101025F
:10167000B091820343E853E070E030E020E0671768
:1016800009F448C0B71709F445C0FA01E05CFF4F00
:10169000F080FD96A0E0FA16C9F10191200F311DEE
:1016A000AF5FF9CF672DC7010E94B7044C01602FCF
:1016B000C7010E94B7047C01AACF80E0C2CFBE015F
:1016C0006E5F7F4FC4010E945B09882359F070163A
:1016D00009F4BACFBE016F5F7F4FC7010E945B095B
:1016E000811103C0639463945ACF8981482F50E0DD
:1016F0002A8130E052FE05C0922F8827842B952B3B
:10170000A5CF942F8827822B932BA0CF7F5F4058A3
:101710005F4FB5CF6B17B8F4F0E86F9FB00111249D
:101720006D577C4FFB01E358FF4F40E0605C7F4FFB
:10173000141749F0DB015C91451728F45191250FEE
:10174000311D4F5FF5CF409181034D3158F6220D89
:10175000331DF901E950FD4F80839183C3CF1F5F93
:10176000D7CE2F923F924F925F926F927F928F923D
:101770009F92AF92BF92CF92DF92EF92FF920F9320
:101780001F93CF93DF93CDB7DEB7CF54D1090FB6F8
:10179000F894DEBF0FBECDBF23B72E7F23BF21E05D
:1017A0002093BA06181619060CF0E7C188E597E0F1
:1017B0000E947E042C969FAF8EAF2C972B961FAD68
:1017C0002B976E0126E2C20ED11C5601F12CE12CA2
:1017D00090919F058091A005981779F030E2E3166B
:1017E000F10459F088E597E00E947E044FEFE41A77
:1017F000F40AF50181935F01EBCF173B21F080E004
:10180000E0E0193B11F4EEA181E0412C512C3201B2
:10181000282F30E0682F70E06E157F05F4F4D601B4
:10182000A60FB71F4C91842E912CB12CA12C621BBA
:10183000730BB3E0660F771FBA95E1F704C0880C0D
:10184000991CAA1CBB1C6A95D2F7B501A4014828B3
:10185000552A6A28772A8F5FDDCF1C3A09F052C0DB
:10186000A701B60180E192E00E9444052B96FFADEE
:101870002B97F7FF63C3163809F429C208F0D4C1C7
:10188000123809F414C208F0C1C1103809F4E7C1D4
:10189000113809F4F8C12B960FAD2B97085C0A306C
:1018A00008F06BC1E02EF12C8091DA029091DB02FE
:1018B000E816F90609F426C381E090E0A0E0B0E064
:1018C0008093020290930302A0930402B093050256
:1018D000F0E0F01708F005C32091020230910302F6
:1018E0004091040250910502AAE0B0E00E94101855
:1018F00060930202709303028093040290930502A6
:10190000FF5FE7CF1E3B69F58FE39CE90197F1F795
:1019100000C000008EEF91E00E94C817873029F0C8
:1019200067E08EEF91E00E94D0178FEF91E00E9468
:10193000C817803B29F060EB8FEF91E00E94D01731
:101940006AE070E080E090E00E94F70388E198E0B0
:101950000FB6F894A895809360000FBE9093600036
:10196000FFCF1B3A21F481E08093F5027FCF133A39
:10197000D1F420916607309167072115310511F4E4
:101980002CE637E0CE010196821B930B092E000C4A
:10199000AA0BBB0B8093F1029093F202A093F30287
:1019A000B093F40263CF143B49F440921903509270
:1019B0001A0360921B0370921C0358CF153B49F425
:1019C0008091190390911A03A0911B03B0911C03FD
:1019D000E1CF80918203113B21F0123B31F48091E1
:1019E000810390E0B0E0A0E0D5CF133B29F4509202
:1019F000B9064092B8063ACF193A19F40E949809EC
:101A000035CF163B41F4F201EE0FFF1FEA55F94FB7
:101A100080819181E7CF183B61F4F201EE0FFF1F47
:101A2000EE0FFF1FEF51FD4F80819181A281B381A5
:101A3000B1CF193B59F494E0E99FF0011124EF5123
:101A4000FD4F408251826282738210CF173B41F476
:101A5000F0E0EE0FFF1FEA55F94F5182408206CFAA
:101A60001D3A49F48091150390911603A091170334
:101A7000B09118038FCF80E092E0A0E0B0E0143A7C
:101A800009F488CF1F3A19F44092E002EFCE1E3AD3
:101A900021F481E08093DF02E9CE103B09F05AC0C7
:101AA000D301C2010196A11DB11DD12CC12C8E31D3
:101AB0009105A105B10508F04BC0342C330C4C0145
:101AC0005D01880C991CAA1CBB1C60968CAE9DAE57
:101AD000AEAEBFAE6097832CD12CC12C282C23181E
:101AE000682D70E090E080E060962CAD3DAD4EAD8D
:101AF0005FAD6097621773078407950748F5A82CB8
:101B0000B12C4AE00E94ED1288E892E00E94B806EB
:101B1000A50149505D4F5A01FA01608170E090E0E3
:101B200080E04AE00E94ED128BE892E00E94B80645
:101B3000F501808190E0F8E02F9E9001112402C011
:101B4000880F991F2A95E2F7C82AD92A8394C6CF0D
:101B5000C60148CF2B968FAD2B978659843008F05D
:101B600085CE2C960EAD1FAD2C9711270739110588
:101B700071F1ECF40639110519F1C15BDF4F0FB6B5
:101B8000F894DEBF0FBECDBFDF91CF911F910F91B3
:101B9000FF90EF90DF90CF90BF90AF909F908F908D
:101BA0007F906F905F904F903F902F9008950839ED
:101BB000110531F10939110501F71092DE02DDCF6F
:101BC00023E052225092830640928206D6CF81E0D3
:101BD0008093DE02E114F10481F290E080E0F601EE
:101BE00021916F01FC01EC57F94F2083E092A4068C
:101BF0000196E816F90699F781E08093A506BDCF16
:101C000082E08093DE0240920002B7CF143809F4DC
:101C10008CC108F455C080917A0690917B06A09102
:101C20007C06B0917D063AC0103A09F44EC158F4D2
:101C3000173819F1183809F02ECE2B96AFAC2B9728
:101C4000A092750611C0123A09F444C108F458C0B4
:101C50001A3A09F020CE842D0E947B058ECF2B9658
:101C60008FAC2B9780927506409271065092720647
:101C7000609273067092740680CF2B969FAC2B9760
:101C800090927506F1CF2FB7F89480916D069091E0
:101C90006E06A0916F06B09170062FBF8093F1027F
:101CA0009093F202A093F302B093F40266CF809176
:101CB000760690917706A0917806B0917906EECFDE
:101CC0008091DC029091DD02B0E0A0E0E7CF80914E
:101CD000BC008B7F8093BC0064E670E080E090E005
:101CE0000E94F7030E949D0668EC70E080E090E09F
:101CF0000E94F7038091BC0084608093BC003DCFBC
:101D000085E2E3EAF2E08E010F5F1F4FD8010190F8
:101D10000D928A95E1F783E0EEE8F2E0DE01AA5B3E
:101D2000BF4F01900D928A95E1F72A961FAE2A9730
:101D3000BE016A5B7F4FC8010E94A518801B910BF2
:101D400063E070E00E943E183B012FEF621A720AB6
:101D500082E992E00E946B17282E85E992E00E94AA
:101D60006B17182F8AE992E00E946B17582E8DE9A5
:101D700092E00E946B17482E80EA92E00E946B1757
:101D8000382E125BA12FB0E020E833E341EE51E0A2
:101D90000E9410184B015C01F0E0E0E09D0194E628
:101DA000E92EF12C40E9C42EDD24D394E217F30789
:101DB00074F12E54384FC90164E670E00E943E1859
:101DC0008C01C90160E971E00E943E187C01E1E0EC
:101DD000F0E07724690143E0C422DD24E615F7052D
:101DE0000CF042C0E230F10579F5C114D10461F57F
:101DF0000115110519F4E114F10431F580E8880E9C
:101E00008BE3981E86E2A81EB11C3196E7CF8F01A6
:101E10000E54184FC80183709927892B99F4C80173
:101E2000B7010E943E18892B31F4C801B6010E9407
:101E30003E18892B39F450E8850E51E5951E51E086
:101E4000A51EB11C3196B2CFDF01AB5ABD4FAC918C
:101E5000B0E020E831E541E050E00E941018860E25
:101E6000971EA81EB91ED1CF252D30E0A0E1BEE0FF
:101E70000E941B186B017C01242D30E0ACE3B0E024
:101E80000E941B18C60ED71EE81EF91EC30CD11CDB
:101E9000E11CF11CE22DE150FF0BDF0120E831E5F0
:101EA00041E050E00E947918C60ED71EE81EF91EC8
:101EB0008C0C9D1CAE1CBF1C8092F1029092F20211
:101EC000A092F302B092F40258CE85E198E0A0E02F
:101ED000B0E0E4CE83E596E0092E000CAA0BBB0B24
:101EE000DDCEF092DB02E092DA024114510461048B
:101EF000710441F04092190350921A0360921B033F
:101F000070921C032FB7F89480916D0690916E0625
:101F1000A0916F06B09170062FBF80937E069093BC
:101F20007F06A0938006B093810680917E069091F3
:101F30007F06A0918006B0918106B0CEE114F10435
:101F400009F4EBC061E02B968FAD2B970E94A103A3
:101F5000411451046104710439F460E02B968FAD93
:101F60002B970E94730309CEFFEF4F1651046104B3
:101F7000710479F070F05A9461E02B968FAD2B9735
:101F80000E94A1034114510441F33FEF4316510451
:101F900011F461E0E3CF2C96EEADFFAD2C97FF2757
:101FA000EA56FD4FE491E150E23108F0B0C0F0E0B4
:101FB0008827E252F04F8F4F0C947118F00FF50FF5
:101FC000FA0F04100E10871018102010281032106D
:101FD0003C10461055105F108710691073107D106B
:101FE00084B5806884BD47BCC8CD84B5806284BD9B
:101FF00048BCC3CD8091800080688093800050925F
:10200000890040928800B9CD8091800080628093E1
:10201000800050928B0040928A00AFCD809180006A
:1020200088608093800050928D0040928C00A5CDF6
:102030008091B00080688093B0004092B3009DCD45
:102040008091B00080628093B0004092B40095CD42
:102050008091900080688093900050929900409207
:1020600098008BCD80919000806280939000509278
:102070009B0040929A0081CD80919000886080936F
:10208000900050929D0040929C0077CD8091A000DE
:1020900080688093A0008091A0008F7B8093A00037
:1020A0005092A9004092A80068CD8091A000806263
:1020B0008093A0005092AB004092AA005ECD809128
:1020C000A00088608093A0005092AD004092AC00C8
:1020D00054CD809120018068809320015092290185
:1020E000409228014ACD8091200180628093200196
:1020F00050922B0140922A0140CD809120018860AE
:102100008093200150922D0140922C0136CD40E861
:10211000441651040CF03DCF20CF103420F12B9603
:102120008FAD2B978054863320F02B968FAD2B9755
:10213000865720917B00982F9870277F922B909341
:102140007B008770806480937C0080917A0080643B
:1021500080937A0080917A0086FDFCCF8091780090
:1021600090917900B9CE60E02B968FAD2B970E94AD
:10217000A1032C960EAD1FAD2C971127F801EA563E
:10218000FD4F8491F801E05BFD4FD490065F1D4F39
:10219000F8010491002399F081110E940C03E02FB3
:1021A000F0E0EE0FFF1FE454FE4FA591B491EC91C7
:1021B000DE2291E080E009F490E0E92EF82EC701DC
:1021C000FF0CAA0BBB0B6ACD1F920F920FB60F929A
:1021D00011240BB60F922F933F934F935F936F93FE
:1021E0007F938F939F93AF93BF93EF93FF938BEB6B
:1021F00096E00E944C02FF91EF91BF91AF919F91A9
:102200008F917F916F915F914F913F912F910F909F
:102210000BBE0F900FBE0F901F9018951F920F923C
:102220000FB60F9211240BB60F922F938F939F939B
:10223000EF93FF93E091CB06F091CC068081E09183
:10224000D106F091D20682FD1DC090818091D40606
:102250008F5F8F732091D506821741F0E091D406ED
:10226000F0E0E554F94F958F8093D406FF91EF91FC
:102270009F918F912F910F900BBE0F900FBE0F90DB
:102280001F9018958081F2CF1F920F920FB60F9278
:1022900011242F933F938F939F93AF93BF9380917C
:1022A0006D0690916E06A0916F06B0917006309108
:1022B000930523E0230F2D3758F50196A11DB11D7D
:1022C0002093930580936D0690936E06A0936F06FE
:1022D000B09370068091940590919505A091960514
:1022E000B09197050196A11DB11D8093940590931F
:1022F0009505A0939605B0939705BF91AF919F91D7
:102300008F913F912F910F900FBE0F901F901895B6
:1023100026E8230F0296A11DB11DD2CF1F920F9266
:102320000FB60F9211240BB60F922F933F934F933A
:102330005F936F937F938F939F93AF93BF93EF932D
:10234000FF938091B900887F803609F44DC008F072
:1023500040C0883209F4A9C028F5803109F49DC035
:10236000C8F4882309F4FBC0883009F496C0FF91B3
:10237000EF91BF91AF919F918F917F916F915F91FD
:102380004F913F912F910F900BBE0F900FBE0F906A
:102390001F901895883109F488C0803241F78093E6
:1023A0006C0514C0803409F49DC040F48033B9F347
:1023B0008833E9F680936C0585ECB0C0803509F46C
:1023C00085C0883509F496C0883489F60E94920742
:1023D000CECF883909F48CC038F5883729F050F40D
:1023E000883611F0803719F683E080936D051092DE
:1023F0006B0557C0883809F47BC0803919F08038E4
:1024000009F0B5CF80916B05803208F071C0E09182
:102410006B0581E08E0F80936B058091BB00F0E02F
:10242000E55BFA4F80833DC0803B39F0E0F4803AB1
:1024300009F479C0883A09F09ACF84E080936D0559
:1024400010924A0510924905E0919B05F0919C0578
:1024500019958091490581110FC081E0809349054C
:102460001092290509C0803C09F4A6CF883C09F4E4
:10247000A3CF883B09F07BCFE0914A0581E08E0F26
:1024800080934A05F0E0E75DFA4F80818093BB00BE
:1024900090914A058091490529C0809192058093C9
:1024A000BB0085EC8093BC0062CF90919105809138
:1024B0009005981758F5E091910581E08E0F809373
:1024C0009105F0E0E059FA4F8081E9CFE091910564
:1024D00081E08E0F809391058091BB00F0E0E05980
:1024E000FA4F808390919105809190059817C8F2DA
:1024F00085E8D8CFE091910581E08E0F809391051A
:102500008091BB00F0E0E059FA4F808380916F0525
:1025100081115CCF81E080936E0584EA8093BC00DA
:1025200010926D0524CF85EC8093BC0010926D0550
:1025300080916B05803230F4E0916B05F0E0E55B53
:10254000FA4F108260916B0570E0E0919905F0916F
:102550009A058BE495E0199510926B0508CF1092BF
:102560006C0534CF1F920F920FB60F9211240F906B
:102570000FBE0F901F9018951F920F920FB60F92DB
:1025800011248F939F93AF93BF93809119039091E0
:102590001A03A0911B03B0911C03892B8A2B8B2B50
:1025A00099F08091190390911A03A0911B03B091A7
:1025B0001C030196A11DB11D8093190390931A036A
:1025C000A0931B03B0931C03BF91AF919F918F9178
:1025D0000F900FBE0F901F9018958F929F92AF9201
:1025E000BF920F931F93CF93DF93CDB7DEB7A19721
:1025F0000FB6F894DEBF0FBECDBF19A2423008F46B
:102600004AE08E010F5D1F4F842E912CB12CA12C1E
:10261000A50194010E94EE17E62FB901CA01EA3024
:10262000F4F4E05DD801EE938D01232B242B252BB0
:1026300079F790E080E0109719F0CD010E94B8067C
:10264000A1960FB6F894DEBF0FBECDBFDF91CF913C
:102650001F910F91BF90AF909F908F900895E95C6C
:10266000E1CFEBEBF6E01382128288EE93E0A0E07C
:10267000B0E084839583A683B78326E632E0318376
:10268000208325EC30E03587248724EC30E0378741
:10269000268720EC30E0318B208B21EC30E0338B2F
:1026A000228B22EC30E0358B248B26EC30E0378B0C
:1026B000268B118E128E138E148EE8E5F7E01382AE
:1026C000128284839583A683B78388E792E09183FF
:1026D00080830895CF93DF9300D01F921F92CDB7D0
:1026E000DEB7789484B5826084BD84B5816084BD92
:1026F00085B5826085BD85B5816085BD80916E00A0
:10270000816080936E0010928100809181008260D0
:10271000809381008091810081608093810080910D
:1027200080008160809380008091B10084608093FC
:10273000B1008091B00081608093B00080919100E1
:1027400082608093910080919100816080939100DC
:10275000809190008160809390008091A1008260C0
:102760008093A1008091A10081608093A10080915D
:10277000A00081608093A0008091210182608093FD
:1027800021018091210181608093210180912001AC
:1027900081608093200180917A00846080937A0028
:1027A00080917A00826080937A0080917A008160C3
:1027B00080937A0080917A00806880937A001092EA
:1027C000C10082E090E09093AF068093AE06109235
:1027D000B1061092B00629E030E03093B3062093A2
:1027E000B20624E130E03093B5062093B40627E02A
:1027F00030E03093B7062093B6069093B9068093E5
:10280000B80689E00E947B059E012F5F3F4F79014A
:1028100000E012E06901C8010E94C817D7018D933A
:102820007D010F5F1F4F0430B2E01B07A1F71D822F
:1028300068EC72E0C6010E948D18892B09F0DEC099
:102840000E94E9078DEC92E00E94B8068BE892E0C6
:102850000E94B80684E6E9E0F6E0DF01282F1D9229
:102860002A95E9F710920F0210920E0210920D02B3
:1028700010920C0210920B0210920A02E5EAF5E0A7
:10288000DF011D928A95E9F7109219021092180241
:102890001092170210921602109215021092140252
:1028A0001091B4061092A00510929F0510929E05FB
:1028B00010929D050E94500482EA91E090939C053D
:1028C00080939B058EEA91E090939A0580939905F9
:1028D000110F1093BA0081EB9BE09093A2058093B7
:1028E000A10585EC96E09093A4058093A305109133
:1028F000B60661E0812F0E94A10361E0812F0E9452
:102900007303F894109280001092810088E09DE398
:1029100090938900809388008091810088608093E3
:1029200081008091810085608093810080916F009B
:10293000826080936F0078942FB7F89480916D0631
:1029400090916E06A0916F06B09170062FBF809394
:102950007E0690937F06A0938006B093810688EE52
:10296000482E83E0582E612C712C8FB7F894C090BC
:102970006D06D0906E06E0906F06F09070068FBFE7
:102980008091BA068F5F8093BA068091B2069091CB
:10299000B306892B49F08091B8069091B906029749
:1029A000039710F40E9498098091A506882351F19D
:1029B0001092A506F894B12C8091A406B81608F5DB
:1029C000EB2DF0E0EC57F94FA080009182061091BA
:1029D0008306C8010E94C817A81621F06A2DC801F5
:1029E0000E94D01780918206909183060196937081
:1029F0009093830680938206B394DECF109298055D
:102A000021CF78948091B2069091B306892B09F476
:102A100074C0A090B806B090B906B1E0AB16B1048E
:102A200029F0C5010397029708F067C010E000E0A5
:102A300080911802909119020817190708F58091E2
:102A4000160290911702E0911002F0911102E80F26
:102A5000F91F60818BEB96E00E946E028091160256
:102A600090911702019660911202709113020E94D8
:102A70002A1890931702809316020F5F1F4FD8CF2A
:102A80001092190210921802AA94AB28B1F58BEBA0
:102A900096E00E943602892B81F18BEB96E00E9432
:102AA000140220910A0230910B02E0910602F0918B
:102AB0000702E20FF31F808380910A0290910B02BC
:102AC00020910802309109020196B9010E942A184A
:102AD00090930B0280930A0280910E0290910F0254
:102AE0008217930708F067C080910E0290910F0241
:102AF000019690930F0280930E0280917E06909132
:102B00007F06A0918006B0918106A7019601281B3F
:102B1000390B4A0B5B0BCA01B901A30192010E9458
:102B2000EE1749015A018091020290910302A0918F
:102B30000402B091050288159905AA05BB0508F5A0
:102B400030E483163CE99306A104B104D0F40E945A
:102B50009D0680927A0690927B06A0927C06B092A7
:102B60007D06C0927E06D0927F06E0928006F092AB
:102B70008106C0927606D0927706E0927806F092AF
:102B8000790680917506803819F510927506F894CB
:102B90001092BC0087B18F7C87B988B1806388B9F7
:102BA00088E198E00FB6F894A895809360000FBE76
:102BB00090936000FFCF80910C0290910D020196DE
:102BC000B9010E942A1890930D0280930C0295CFB0
:102BD00080917506873821F4109275060E94ED04E5
:102BE000809175068838A1F410927506609171067F
:102BF0007091720680917306909174060E94F80499
:102C0000109271061092720610927306109274065A
:102C10008091BA06823030F08091AE069091AF0676
:102C20000597F9F08091BA068B3030F08091AE06AE
:102C30009091AF060497A9F08091BA06853130F0E3
:102C40008091AE069091AF06039759F08091BA0635
:102C5000893248F08091AE069091AF0601970297B5
:102C600010F40E94ED048091BA06823030F0809119
:102C7000AE069091AF060997F1F08091BA068B30BD
:102C800030F08091AE069091AF060897A1F0809148
:102C9000BA06853130F08091AE069091AF06079765
:102CA00051F08091BA06893280F08091AE06909101
:102CB000AF06069751F46091020270910302809171
:102CC0000402909105020E94F8040E94DB024DCE9E
:102CD0003F924F925F926F927F928F929F92AF92AC
:102CE000BF92CF92DF92EF92FF920F931F93CF93F9
:102CF000DF935C016B017A016115710519F0FB012D
:102D000091838083E114F10449F0C701029783970E
:102D100028F060E070E0CB019BC05E01E5012196E8
:102D2000F5011081812F90E00E948917892BA9F766
:102D30001D3209F05CC02196F501118101E0E1141A
:102D4000F10409F4BBC0F0E1EF16F10409F09BC0F7
:102D5000103341F488818F7D883509F08FC0198147
:102D600022960260E0E1EE2EF12C88248A94982CC1
:102D7000A82CFFE0BF2E20E060E070E0CB0127012F
:102D80000F2C000C66087708FE0150ED352E310E31
:102D900039E0331568F43FEB310F49EC342E3A310A
:102DA00030F03FE9310F3A31B0F539EA332E310EC8
:102DB0003E141F0484F52F3FB9F086169706A80627
:102DC000B90638F1A30192010E94DE17232D30E0ED
:102DD00050E040E0620F731F841F951F6217730756
:102DE00084079507B0F021E021961081CDCF1B32EA
:102DF00021F4E5012296F501118100E0A0CF78E0F1
:102E0000E72EF12C88248A94982CA82C6FE1B62EFA
:102E1000B2CF2FEFE9CFC114D10431F0222351F109
:102E20002197F601D183C08300FF07C0909580955C
:102E3000709561957F4F8F4F9F4F2F3F49F482E2EE
:102E400090E090936B0780936A076FEF7FEFCB0161
:102E5000DF91CF911F910F91FF90EF90DF90CF9076
:102E6000BF90AF909F908F907F906F905F904F90AA
:102E70003F90089501FFD8CF2297D3CF10E3E114FC
:102E8000F10409F4BCCF3AE0E316F104E9F080E183
:102E9000E816F10409F466CFE8E0EE16F10409F44F
:102EA000B1CF6FEF7FEFCB0197010F2C000C440BDC
:102EB000550B0E94EE1749015A015DCF103309F4FA
:102EC00049CF9AE0E92EF12C89E9882E982CA82C7C
:102ED00089E1B82E50CFFC0188279927E8942191E9
:102EE0002032E9F3293010F02E30C8F32B3241F0B4
:102EF0002D3239F4689404C00E94BD17820F911DD1
:102F0000219120532A30C0F31EF4909581959F4F54
:102F1000089591110C94C517803219F0895085508D
:102F2000C8F7089544E657E00C949617FA01A1916A
:102F3000B081009719F41097E1F0CD01DC01CD01CB
:102F40000D90002011F4C00113C0FB012191222338
:102F500019F02015D9F7F3CFFB012191201519F4B1
:102F60001E92119606C02223C1F70D900020A1F7F2
:102F7000D001FA01A193B08308957AE0979F902D34
:102F8000879F802D910D11240895992788270895F2
:102F9000F999FECF92BD81BDF89A992780B5089521
:102FA000262FF999FECF1FBA92BD81BD20BD0FB665
:102FB000F894FA9AF99A0FBE01960895DB018F935F
:102FC0009F930E941018BF91AF91A29F800D911DF9
:102FD000A39F900DB29F900D11240895A1E21A2E87
:102FE000AA1BBB1BFD010DC0AA1FBB1FEE1FFF1FAD
:102FF000A217B307E407F50720F0A21BB30BE40BFD
:10300000F50B661F771F881F991F1A9469F7609543
:103010007095809590959B01AC01BD01CF010895FD
:103020000E941B18A59F900DB49F900DA49F800D2A
:10303000911D11240895A29FB001B39FC001A39FC9
:10304000700D811D1124911DB29F700D811D1124E1
:10305000911D0895AA1BBB1B51E107C0AA1FBB1FEE
:10306000A617B70710F0A61BB70B881F991F5A9514
:10307000A9F780959095BC01CD01089597FB072E87
:1030800016F4009407D077FD09D00E942A1807FC97
:1030900005D03EF4909581959F4F08957095619568
:1030A0007F4F0895052E97FB1EF400940E94691827
:1030B00057FD07D00E94EE1707FC03D04EF40C9486
:1030C000691850954095309521953F4F4F4F5F4F70
:1030D000089590958095709561957F4F8F4F9F4F84
:1030E0000895EE0FFF1F881F8BBF0790F691E02D0C
:1030F0001994B7FF0C9410180E941018821B930BA0
:10310000089591110C94C51780538A5028F0865C5D
:10311000806281568650B0F70895FB01DC018D91E5
:10312000019080190110D9F3990B0895FB01DC017E
:103130004150504048F001900D920020C9F701C065
:103140001D9241505040E0F70895FB0151915523E5
:10315000A9F0BF01DC014D9145174111E1F759F488
:10316000CD010190002049F04D9140154111C9F366
:10317000FB014111EFCF81E090E001970895F894B1
:02318000FFCF7F
:1031820001FFC80000000906640000000000000002
:10319200A5056400000000000000000000002C01F2
:1031A2000000B004000060090000C0120000802589
:1031B2000000004B00000096000000E1000000C289
:1031C20001000084030090D0030020A107004042C8
:1031D2000F0080841E001F1C1F1E1F1E1F1F1E1F8C
:1031E2001E1F000000006E02D8010502BB0236025B
:1031F2001402280200000000A3049804B4046E0420
:1032020091047E046F043B003A20000D0A004665DB
:103212006220203920323032360031373A31353AA5
:103222003432004A616E4665624D61724170724D80
:1032320061794A756E4A756C4175675365704F6363
:10324200744E6F7644656300444154410053746187
:06325200727465640000C7
:00000001FF
